:1000000048F09FE548F09FE548F09FE548F09FE500
:1000100048F09FE548F09FE548F09FE548F09FE5F0
:1000200000000000606D0300000000002E546865B1
:100030004C69676874436F5F436F727465785234BC
:100040005F41534943467753322E000000F020E3CE
:100050008800000070000000F073000078000000CD
:100060007C00000080000000B074000084000000EC
:10007000FEFFFFEAFEFFFFEAFEFFFFEAFEFFFFEAE8
:10008000FEFFFFEAFEFFFFEA00000FE1C00080E391
:1000900000F029E16FF07FF5000020E00010A0E102
:1000A0000020A0E10030A0E10040A0E10050A0E16C
:1000B0000060A0E10070A0E10080A0E10090A0E15C
:1000C00000A0A0E100B0A0E100C0A0E100D0A0E14C
:1000D00000E0A0E1110002F114D29FE5120002F14C
:1000E00010D29FE5170002F10CD29FE51B0002F130
:1000F00008D29FE51F0002F104D29FE5130002F130
:1001000000D29FE5010000EB5A0000EBA98B00EA4A
:1001100004E02DE50000A0E3150F07EE6FF07FF57A
:10012000150F0FEE6FF07FF50208A0E3101F11EE20
:10013000001081E14FF07FF5101F01EE6FF07FF5A9
:100140000000A0E30010A0E30020A0E33F30A0E304
:100150003A0000EB0100A0E30113A0E3C22FA0E3EB
:100160003D30A0E3350000EB0200A0E30214A0E361
:10017000132CA0E33130A0E3300000EB0300A0E338
:100180000010A0E380219FE53130A0E32B0000EBBD
:100190000400A0E38A17A0E36C219FE52330A0E3CD
:1001A000260000EB0500A0E30D15A0E3C22FA0E39D
:1001B0002130A0E3210000EB0600A0E33316A0E30A
:1001C000C22FA0E31F30A0E31C0000EB0700A0E358
:1001D0002216A0E334219FE51D30A0E3170000EBB9
:1001E0000800A0E328119FE51C219FE50E0000EA0E
:1001F000120000EB0100A0E3101F11EE001081E1DE
:100200004FF07FF5101F01EE6FF07FF504019FE5C1
:10021000101F11EE001081E14FF07FF5101F01EE6D
:100220006FF07FF504F09DE41EFF2FE1E8509FE59D
:10023000015045E28550A0E1013085E3EBFFFFEA84
:10024000120F06EE6FF07FF5111F06EE6FF07FF5CF
:10025000912F06EE6FF07FF5513F06EE6FF07FF5C0
:100260001EFF2FE1100F11EE020AC0E3100F01EE86
:100270006FF07FF51EFF2FE100000FE18000C0E36B
:1002800000F029E11EFF2FE100000FE1800080E374
:1002900000F029E11EFF2FE100000FE14000C0E364
:1002A00000F029E11EFF2FE100000FE1400080E394
:1002B00000F029E11EFF2FE1100F1FEE030080E385
:1002C000100F0FEE6FF07FF51EFF2FE1100F1FEEE6
:1002D0000300C0E3100F0FEE1EFF2FE1F000C2E19C
:1002E0004FF07FF51EFF2FE1D000C0E14FF07FF50A
:1002F0001EFF2FE160770300607703006077030043
:10030000607703006073030060750300030300005F
:10031000030600000000003C041000001B00000069
:1003200008B50D4A0D4B9A4201D0043A01E00C4B3E
:1003300007E00C498B42FAD252F8041F43F8041B21
:10034000F7E7094A934203D2002243F8042BF8E767
:10035000064B984708BD00BF7086020000340300BA
:10036000705F03006D5F0300606D03001576000091
:10037000034A53681BB112681068C0B2184770472F
:100380007886020010B5044618B91A4893211A4B12
:10039000984723781BB117489421174B9847174B60
:1003A00022786468164853F83230154A2101B2FBAE
:1003B000F1F26FF00F01614351430844D968B0EB8B
:1003C000C40F88BF013241F08001D960D1B2120A56
:1003D00019605A60DA6822F08002DA6000229A60BE
:1003E000DA6822F00302DA60DA6842F00302DA60C7
:1003F00010BD00BFC82F0200D53C00007886020067
:10040000406BED0710B5044618B91148BC21114BDB
:10041000984723781BB10E48BD210E4B9847E368DF
:100420001BB90B48BE210B4B98470B4B227853F856
:1004300032200A4B5169890602D4013BFAD105E00A
:1004400023B1E36800201B78136010BD012010BDAC
:10045000D52F0200D53C00007886020080969800D7
:1004600010B5044618B91148DF21114B984723787D
:100470001BB10E48E0210E4B9847E3681BB90B48AF
:10048000E1210B4B98470B4B227853F832200A4B53
:100490005169C90702D4013BFAD105E023B1E368F1
:1004A000002012681A7010BD012010BDE62F020056
:1004B000D53C0000788602008096980038B5054645
:1004C00020B911484FF48071104B98472B7823B115
:1004D0000D4840F201110D4B98470D4B2A78312001
:1004E00053F8324003EBC203AA685A60E16F094B2C
:1004F000216809499847094B3120052198476368CD
:1005000043F00103636038BDF72F0200D53C0000C3
:1005100078860200511A000071030000F91A0000E9
:1005200010B5044618B91A4888211A4B9847237801
:10053000012B02D86378092B03E0022B02D16378E8
:100540000F2B03D912488921124B9847A378012B0E
:1005500003D90F488A210F4B984723780BB90E4BCC
:1005600009E0012B01D10D4B05E00D490D4A022B8D
:1005700014BF13460B46A2786078196822B901228D
:10058000824021EA020201E082400A431A6010BD63
:100590000A300200D53C000004F0020210F0020212
:1005A0001CF0020228F0020210B5044618B91E48D9
:1005B000A6211E4B98472378012B02D86378092B7C
:1005C00003E0022B02D163780F2B03D91648A72131
:1005D000164B9847A378012B03D01348A821134B3F
:1005E000984722786178124B32B9012218688A4004
:1005F00020EA02021A6010BD012A05D1D8688A409B
:1006000020EA0202DA6010BD022A4FF001020BBF9D
:100610009869586A8A408A400BBF20EA020220EAA1
:1006200002029A615A6210BD2A300200D53C0000D5
:1006300000F0020210B5044618B91C48BD211C4B3D
:1006400098472378012B02D86378092B03E0022B0B
:1006500002D163780F2B03D91448BE21144B98475D
:10066000A378012B03D01148BF21114B9847227862
:100670006178104B2AB9012218688A4002431A6037
:1006800010BD012A04D1D8688A400243DA6010BD47
:10069000022A4FF001020BBF9869586A8A408A40CB
:1006A0000BBF024302439A615A6210BD1830020028
:1006B000D53C000000F00202F8B50B4B00250B4CB6
:1006C0001E68F3B22B41DB0707D554F8043C54F8FD
:1006D000087C206803B19847FB680135082D04F1B8
:1006E0000C04EED1F8BD00BFA01000028886020005
:1006F00038B518B30178072922D80C23124A4B4386
:10070000124D2C78D118D3589A6822F001029A60C1
:100710009A6842F002029A6082684A6085224168C3
:100720004A431A6074B9032009490A4B98470A4B97
:1007300003200F21984701232B7003E0012038BDCF
:10074000022038BD002038BD80860200705F0300A3
:10075000B9060000511A0000F91A000007289FBFCF
:100760000C235843054B1A5897BF0020022093686A
:1007700043F0010398BF9360704700BF808602007A
:1007800007289FBF0C235843054B1A5897BF0020DA
:100790000220936823F0010398BF9360704700BF65
:1007A000808602004FF49C7312495843F0B50B1831
:1007B0000A5818460C30B3F89C30DB00C518AC88DA
:1007C00008331844661E002399B2A1420CD29E42FF
:1007D000296805D187881FB9895D41F4007100E05F
:1007E000C95C11610133EFE7136B43F0100313632E
:1007F000F0BD00BFE08602004FF49C7311495843DE
:1008000030B50B180A5818460C30B3F89C30DB0092
:10081000C1188988083318444D1E00239CB28C42AD
:100820000BD29D4204D1848814B94FF4407401E086
:100830004FF4807414610133F0E7136B43F010033D
:10084000136330BDE08602004FF49C730C4958439B
:1008500010B50B180A5818460C30B3F89C3000EB52
:10086000C300818800239CB28C4204D20468E45CFB
:1008700001331461F7E7136B43F01003136310BDEA
:10088000E08602004FF49C720B4B424310B599185E
:100890009C58B1F89C2027210132484310FA82F07D
:1008A00003EBC002128B2AB103EBC0031B8A013B8E
:1008B000E36310BDE26310BDE08602004FF49C725A
:1008C000504942432DE9F04105468C188B58DE6AA9
:1008D00016F0100F0E4621D01E6B26F010061E6378
:1008E000B4F89C3001339BB201EBC3010A44128A75
:1008F000002A00F08580A4F89C30434B984794F878
:10090000323143B9637A032B28460CBF3F4B404B2F
:100910009847BDE8F08128463E4BF9E7D96A490778
:100920002FD504F59877B97831BBA032B4F83001EF
:10093000324402EBC00401F1010EA78889B28F4254
:1009400006D9D3F810C0276807F801C07146F2E74E
:10095000013002EBC0029188002951D04FF49C7104
:1009600001FB0565B5F830110131A5F83011928809
:10097000013A9A63BDE8F081083401217B68617017
:1009800007E0DA6A920609D51B6D0521D4F83431E7
:100990006172002B34D0BDE8F0411847DA6A57067F
:1009A00004D55B6D07236372BDE8F081DA6A9005B8
:1009B00002D4DA6AD10422D5DA6A92054CBF1B6EE2
:1009C000D3F8A8304FF49C7303FB05635A7A032ACB
:1009D00003F1080301D1042203E05A78012A01D16E
:1009E00002225A704FF49C7303FB0563D3F8342141
:1009F00032B1083359782846BDE8F04110471B6CE6
:100A0000BDE8F081E086020085080000A50700002F
:100A1000F9070000490800004FF49C73F0B58E8878
:100A200058431B4C0D68AE46235820440C3082427C
:100A300002F104040BBFD3F8F430D3F8F400C3F38D
:100A40000743C0F307200DBF01330130C0F34F034C
:100A5000C3F34F03B6FBF3F6F00000F10C071744A5
:100A60000834BC4205D044F80CEC9E4424F8083C01
:100A7000F6E716FB03F4898803FB0653091B1044B1
:100A800089B242F83630818009B100238381F0BDFC
:100A9000E086020008B50020014B984708BD00BF62
:100AA000BD08000008B50120014B984708BD00BFF4
:100AB000BD08000008B50220014B984708BD00BFE3
:100AC000BD08000008B50320014B984708BD00BFD2
:100AD000BD08000008B50420014B984708BD00BFC1
:100AE000BD08000008B50520014B984708BD00BFB0
:100AF000BD08000008B50620014B984708BD00BF9F
:100B0000BD08000008B50720014B984708BD00BF8D
:100B1000BD08000008B50820014B984708BD00BF7C
:100B2000BD08000008B50920014B984708BD00BF6B
:100B3000BD08000008B50A20014B984708BD00BF5A
:100B4000BD08000008B50B20014B984708BD00BF49
:100B5000BD08000008B50C20014B984708BD00BF38
:100B6000BD08000008B50D20014B984708BD00BF27
:100B7000BD08000008B50E20014B984708BD00BF16
:100B8000BD08000008B50F20014B984708BD00BF05
:100B9000BD08000008B51020014B984708BD00BFF4
:100BA000BD08000008B51120014B984708BD00BFE3
:100BB000BD08000008B51220014B984708BD00BFD2
:100BC000BD08000008B51320014B984708BD00BFC1
:100BD000BD08000008B51420014B984708BD00BFB0
:100BE000BD080000142838B504460D4604D91C4839
:100BF0004FF4CA711B4B9847022D04D9184840F294
:100C00009511184B98474FF49C73174A0021634382
:100C1000D358D96611461A6822F006024DB942F03F
:100C200002021A604FF40D725A614FF430729A61E9
:100C30000CE042F00402012D1A6009BF68222B2249
:100C4000DA61CE221CBFDA6143221A624FF49C7231
:100C500002FB0414012284F83351DA6638BD00BF68
:100C600048300200D53C0000E0860200F8B504469A
:100C700020B94B484FF49B714A4B98472378142B6B
:100C800004D9474840F23711464B98472378142B34
:100C900004D943484FF49C71424B9847A378012BE9
:100CA00004D93F4840F239113E4B98476378022BF4
:100CB00004D93B484FF49D713A4B9847A3781BB930
:100CC000A3887F2B06D80AE0012B03D1A388B3F5B4
:100CD000806F04D3324840F23B11324B98474FF4B7
:100CE0009C77257830486F430646C3191B7A012B41
:100CF00055D061782D4B28469847F3590022E1786A
:100D0000DA661A6839B942F001021A601A6842F0CC
:100D100040021A6008E022F040021A601A6822F0CD
:100D200001021A60A2889A604FF49C7202FB05626D
:100D300082F83211A1781A6851B922F010021A60B3
:100D40001A6822F008021A605A6822F4805209E0F8
:100D500042F010021A601A6842F008021A605A68DB
:100D600042F480524FF49C705A6000FB05605A6850
:100D700022F48062416001215A601A6842F0200228
:100D80001A6000221A6301724272DA639A63028265
:100D9000A0F8A420A0F89C20A0F83021D966F8BDC6
:100DA0003B300200D53C0000E0860200E50B00006D
:100DB000034A4FF49C7303FB002090F83301704703
:100DC000E08602002DE9F84304468846154622B91C
:100DD000314840F21721314B9847142C04D92E4842
:100DE0004FF406712D4B98472D4E4FF49C7303FB27
:100DF00004635B681BB9B8F17F0F05D809E0012BCC
:100E000002D1B8F5806F04D323484FF40771234B08
:100E100098474FF49C7303FB04631B7A012B04D0A7
:100E20001D4840F21D211D4B98471E4A4FF49C73EC
:100E30006343F718797A07F10809032903D099F871
:100E40000110012904D1013AF0D10120BDE8F88355
:100E5000134A2946204600251A440C32124B57F8F3
:100E6000986B98470323204689F80130BD800F4BCB
:100E70009847F5667368204623F47F7323F00303D5
:100E80007360736848EA030373600123F366084BD9
:100E900098472846BDE8F8838F300200D53C000013
:100EA000E0860200414B4C00190A00008508000052
:100EB000A50700002DE9F74F04468946934622B95D
:100EC0003D484FF415713D4B9847142C04D93A48CE
:100ED00040F25521394B9847394D4FF49C7303FB31
:100EE00004535B681BB9B9F17F0F05D809E0012BEA
:100EF00002D1B9F5806F04D32F4840F259212F4B0E
:100F000098474FF49C7303FB04531B7A012B04D0C6
:100F1000294840F25A21294B98472A4B4FF49C7795
:100F2000DFF89CC0674305EB070898F8092008F133
:100F3000080A032A03D09AF80120012A03D1013BB1
:100F4000ECD1012034E043460CEB07022046594621
:100F50000C3253F8986B002501931B4BCDF800C061
:100F60009847DDF800C007F1A002019B0127594610
:100F700062449D802046144B98472046134BA8F8A6
:100F800030518AF801709847B8F8A430013B2046E8
:100F9000B363F566736823F47F7323F00303736010
:100FA000736849EA03037360F766094B984728465C
:100FB00003B0BDE8F08F00BFC4300200D53C000094
:100FC000E0860200414B4C00190A00008508000031
:100FD000F90700002DE9F84304460F4621B92248DD
:100FE0004FF42571214B9847142C04D91E4840F228
:100FF00095211E4B98471E4B4FF49C721D4602FBD9
:101000000432127A012A04D0174840F29921174B72
:101010009847184A4FF49C736343EE18717A06F1AF
:101020000808032904D1013AF4D10120BDE8F8836E
:101030000F4A3546204639461A440C320E4B55F8B5
:10104000989B98470023AB80032388F80130338BAB
:1010500013B1B8F80830013BC9F83C302046074BC3
:1010600098470020BDE8F8835A300200D53C0000C4
:10107000E0860200414B4C00190A000049080000BC
:1010800070B506460D4621B9184840F2CB21184BE1
:101090009847142E04D915484FF43371144B9847D0
:1010A000144B4FF49C721C4602FB0632127A012A42
:1010B00004D00E4840F2CD210D4B98474FF49C7060
:1010C00000237043205899B2AA888A420CD90A4A50
:1010D000046F240703D4013AFAD1012070BD0469DA
:1010E00001332A685454EEE7002070BD6B300200D3
:1010F000D53C0000E0860200414B4C0038B5044668
:1011000020B9694840F2F121684B98472378142BA5
:1011100004D9654840F2F221644B9847644D4FF47E
:101120009C72237802FB03531B7A012B04D05E4888
:1011300040F2F3215D4B98474FF49C732278534360
:10114000E818EB58196B41F080011963196B41F0F5
:1011500040011963196B41F020011963196B41F0CB
:1011600004011963196B41F400711963196B41F49F
:1011700080511963196841F480711960A368C0F83F
:101180003431142A00F28E80DFE802F00B11171DB3
:1011900023292F353B41474D53595F656B71777D4F
:1011A00084001D204349444B98471D2077E01C20B4
:1011B0004249414B98471C2071E01B2040493E4B5F
:1011C00098471B206BE01A203E493B4B98471A205A
:1011D00065E019203C49384B984719205FE01820FA
:1011E0003A49354B9847182059E017203849324B77
:1011F0009847172053E0162036492F4B9847162062
:101200004DE0152034492C4B9847152047E0142019
:101210003249294B9847142041E013203049264B8E
:10122000984713203BE012202E49234B9847122069
:1012300035E011202C49204B984711202FE0102039
:101240002A491D4B9847102029E00F2028491A4BA6
:1012500098470F2023E00E202649174B98470E2071
:101260001DE00D202449144B98470D2017E00C2059
:101270002249114B98470C2011E00B2020490E4BBE
:1012800098470B200BE00A201E490B4B98470A2079
:10129000014605E009201C49074B984709200A210F
:1012A0001A4B984738BD00BF7C300200D53C000087
:1012B000E0860200950A0000511A0000A50A00000D
:1012C000B50A0000C50A0000D50A0000E50A0000C2
:1012D000F50A0000050B0000150B0000250B0000AF
:1012E000350B0000450B0000550B0000650B00009E
:1012F000750B0000850B0000950B0000A50B00008E
:10130000B50B0000C50B0000D50B0000F91A00005A
:10131000142838B5044604D9104840F27331104BF4
:101320009847104D4FF49C7303FB04531B7A012B19
:1013300004D00A484FF45D71094B98474FF49C73F1
:1013400000216343C4F11D00EA18C0B2EB581963D1
:101350001B6CC2F83411044B984738BDB030020002
:10136000D53C0000E0860200A11A0000142870B5E8
:10137000044604D9084840F2FD11084B98474FF441
:101380009C73074A002563432046D618D358DD6670
:10139000044B9847357270BDA1300200D53C000067
:1013A000E08602001113000010B500241E4B01213D
:1013B00001FA04F0D3F8C020104209D0D3F8C820B5
:1013C0000243E0B2C3F8C820184B53F834309847B2
:1013D000154A0123A01D8340D2F8C0100B420AD049
:1013E000D2F8C810E0B20B434021C2F8C8300F4B0E
:1013F00053F8343098470C4A012304F10C00834021
:10140000D2F8C0100B420BD0D2F8C810E0B20B4398
:101410004FF48051C2F8C830044B53F83430984729
:101420000134062CC2D110BD00B00102745F03006C
:10143000094A40010223111800F100700B6100F508
:10144000D8300023036043608B60CB60C2F8C430A7
:10145000024BC2F8C830704700B00102FFFF030022
:10146000052838B504460D4603D91A48A3211A4B5E
:1014700098471DB91748A421174B98472B7813F0AC
:10148000FD0F03D01348A521134B98476B78012B10
:1014900003D91048A621104B984760016A7800F1E3
:1014A0000073297803F5D8331A611A6909B10A4320
:1014B00002E0297D42EA01121A6100F1007303F58E
:1014C000D8336A681A60AA685A60EA689A602A691A
:1014D000DA6038BD03310200D53C0000052810B5A4
:1014E000044603D90648BE21064B9847600100F127
:1014F000007000F5D830036943F48053036110BDD8
:1015000015310200D53C0000052810B5044603D96A
:101510000648CA21064B9847600100F1007000F5AB
:10152000D830036923F48053036110BD27310200D2
:10153000D53C00000122024BC3F8CC20704700BF0D
:1015400000B00102052838B505460C4603D91948F4
:10155000E121194B98471CB91648E221164B9847D0
:10156000238843F4825343F0010341F241029BB2CA
:10157000934203D00F48E3210F4B984763681BB990
:101580000C48E4210C4B98470C4B062062680C4930
:1015900043F8352003EBC50301221A712388D1F8E3
:1015A000C420AB401343C1F8C4300649064B9847EA
:1015B00038BD00BFD6300200D53C0000745F030088
:1015C00000B00102A9130000511A0000052810B54F
:1015D000044604D9044840F21111044B98476401B1
:1015E000034B185910BD00BFEC300200D53C000081
:1015F00014B00102084A000113581044596A11F44A
:10160000807F596A14BF41F4807141F4805159625E
:101610008368C068184700BF78A0020010B5002496
:101620002201054BD3585B6A13B12046034B984700
:101630000134062CF4D110BD78A00200F51500008D
:1016400010B506242201054BD3585B6A13B120461E
:10165000034B984701340C2CF4D110BD78A0020044
:10166000F51500000B2810B5044603D91048D02109
:10167000104B9847104B240101211A191B599171E5
:1016800052798A4207D11A6A22F480721A621A6A5F
:1016900042F010020AE0022A1A6A22F010021A62CC
:1016A0001A6A0CBF42F4807222F480721A6210BD72
:1016B00065310200D53C000078A002000B2810B56F
:1016C000044603D90948F721094B9847094B2401DF
:1016D00019191B591A6A22F010021A621A6A22F4A6
:1016E00080721A6200238B7110BD00BF5831020056
:1016F000D53C000078A002000B282DE9F8430646EF
:101700000C4604D941484FF48671414B984724B99F
:101710003E4840F20D113E4B9847E3693D4A013B7C
:10172000934204D939484FF48771394B9847237E47
:10173000032B04D9354840F20F11354B9847002749
:10174000FDB2237EAB4213D904EBC5035B6823B91A
:101750002E484FF489712E4B984714F83530642B7E
:1017600004D92A4840F21311294B98470137E7E77B
:10177000E3694FF0000C284D284AB5FBF3F533011F
:10178000D11891F80480B8F1020FD15814BF05F1B7
:10179000FF306808C8615FFA8CF1207E884218D952
:1017A00014F8310068436427B8F1020FB0FBF7F07A
:1017B0004FEAC10ED75804EB0E090CF1010C08BF1B
:1017C000400847F83100D158D9F804007144486006
:1017D000E1E7022907D8D058002500EBC10001310C
:1017E0004560C9B2F5E7D11849790229D05818BF28
:1017F000002113449B7908BF216A012B816102D12A
:101800003046074B9847BDE8F88300BF73310200AC
:10181000D53C00003FEFC41F406BED0778A00200ED
:101820006516000070B5054616460C4619B91648EF
:10183000B221164B98472378022B03D91248B321C3
:10184000124B98476378022B03D90F48B4210F4BF2
:1018500098470B2D03D90C48B5210C4B98472B0109
:101860000B49CA18C8582178036A23F003030B43B5
:1018700003626378537100231171284693713146D6
:10188000044B984770BD00BF3A310200D53C0000C0
:1018900078A00200F91600000B28F8B505460C46A2
:1018A00004D91E4840F243111D4B984724B91B48E8
:1018B0004FF4A2711A4B98472388B3F5807F194FD4
:1018C0004FEA05160BD0B3F5805F03D1BB195B79E6
:1018D000022B04D0114840F24711114B984763681E
:1018E00023B90E484FF4A4710D4B9847BB19626899
:1018F000052D9A6098BF0520A26888BF0420DA6091
:101900004FF0010298BF0849DA712288BB599A62E8
:1019100088BF0649064B9847F8BD00BF92310200C8
:10192000D53C000078A002001D1600004116000002
:10193000511A00000B2870B505460C4604D9094819
:1019400040F28511084B9847084A2B012846143469
:10195000D658074B98470123326AA340134333629A
:1019600070BD00BF47310200D53C000078A00200E6
:10197000BD1600000B2870B505460C4604D9094871
:1019800040F29711084B9847084A2B012846143417
:10199000D658074B98470123326AA34022EA030333
:1019A000336270BD82310200D53C000078A0020095
:1019B000BD1600000849002303F01F02920002F543
:1019C000807253500133342B04D0044A1F2BC8BFFC
:1019D0001146F1E7704700BF002003020030030208
:1019E000332810B5044604D907484521074B9847CA
:1019F00001E01F2803D9203C054AE4B200E0054A73
:101A00000123A340136110BDB8310200D53C000092
:101A10000030030200200302332810B5044604D925
:101A200007485221074B984701E01F2803D9203C63
:101A3000054AE4B200E0054A0123A340536110BD0A
:101A4000D8310200D53C0000003003020020030220
:101A5000332870B504460D4603D90B485E210B4B65
:101A600098471DB908485F21084B9847084E3378BE
:101A70001BB9084B984701233370074B204643F8A6
:101A80002450064B984770BDC7310200D53C00007A
:101A900074600300B5190000A45F0300E1190000A1
:101AA000332810B5044603D905486C21054B9847E7
:101AB000054B204698470022044B43F8242010BDD4
:101AC000A5310200D53C0000191A0000A45F0300F4
:101AD00008B5064B1A68064B53F822300BB162B6B4
:101AE00098470022034B1A6008BD00BF002F030275
:101AF000A45F0300003F0302332838B504460D46B7
:101B000003D90A4891210A4B98470F2D03D907485A
:101B10009221074B98471F2C83BF203C054BE4B212
:101B2000054B03F5007343F8245038BDE83102003B
:101B3000D53C0000003003020020030238B500F558
:101B400000541F3405462403E2681AB11A48294696
:101B50001A4B9847D4F8E0201AB119482946174B78
:101B60009847D4F8F0201AB116482946134B9847E5
:101B7000D4F800211AB114482946104B9847D4F8DC
:101B800010211AB1114829460C4B9847D4F820214E
:101B90001AB10F482946094B9847D4F830211AB199
:101BA0000C482946054B9847D4F840211AB10A48F9
:101BB0002946024B984738BD433202008D90010000
:101BC0006E3202009E320200CE320200003302006A
:101BD0002A330200543302007F33020008B5052087
:101BE000014B984708BD00BF3D1B000008B504200D
:101BF000014B984708BD00BF3D1B000008B50320FE
:101C0000014B984708BD00BF3D1B000008B50220EE
:101C1000014B984708BD00BF3D1B000008B50120DF
:101C2000014B984708BD00BF3D1B000008B50020D0
:101C3000014B984708BD00BF3D1B0000F8B50503E8
:101C4000104B0446EF581033EE5846B10E4B9847F0
:101C500021463246DFF840C003460C48E0470C4BB3
:101C600053F834C0BCF1000F06D003EBC403204688
:101C7000394632465B68E047064BEF501033EE5072
:101C8000F8BD00BF387002027D5F0000A93302007A
:101C900078600300347002028D90010008B50520C1
:101CA000014B984708BD00BF3D1C000008B504204B
:101CB000014B984708BD00BF3D1C000008B503203C
:101CC000014B984708BD00BF3D1C000008B502202D
:101CD000014B984708BD00BF3D1C000008B501201E
:101CE000014B984708BD00BF3D1C000008B500200F
:101CF000014B984708BD00BF3D1C0000052838B5C2
:101D0000044604D916484FF4B971164B984704F5A8
:101D100000531F3301221B0300210220124D240314
:101D20001A645A649A6059651965196459641A6588
:101D300018655D65442519655D6516255D65186541
:101D40001965032159601A645A644FF48272074B73
:101D5000E2504FF0FF33064AA3501032A35038BD73
:101D600010320200D53C0000440001005470020211
:101D70003070020205282DE9F04106460C4604D9D0
:101D8000594840F28311594B9847237813F0F00FCC
:101D900004D055484FF4C271544B9847637B13F0FD
:101DA000F00F04D0504840F28511504B98476378AB
:101DB000032B04D94C484FF4C3714C4B9847237BF9
:101DC0002A3B032B04D9484840F28711474B9847D8
:101DD00030032178464A11F0010601F002076578C8
:101DE00007F0FF0E83581CBF23F003032B431FB1E2
:101DF00023F4407343EA052301F0040707F0FF0CC6
:101E00001FB123F4403343EA054301F0080808F00A
:101E1000FF07B8F1000F03D023F0407343EA0563D6
:101E20008350637B023BDBB2062B8EBF0023314A1B
:101E3000D35C227B02EB032346B1DFF8CC8050F861
:101E40000860360C36041E4340F80860BEF1000FEF
:101E500008D0DFF8B4E050F80E60B6B246EA0346A8
:101E600040F80E60BCF1000F08D0DFF88CE050F8AD
:101E70000E60360C36041E4340F80E602FB11E4F24
:101E8000C659B6B246EA0343C3512B3AE389D2B2EC
:101E9000022A8EBF0822194EB2565DB9534308225A
:101EA00093FBF2F3102213F00F0F93FBF2F302D027
:101EB000013300E0DB10228A43EA0243104A024465
:101EC00059B1CD0702F110024FEA510142BFA56896
:101ED00042F8105C42F80C3CF2E70A4A6168815013
:101EE00004328350BDE8F08122320200D53C00006C
:101EF00010700202E83302001C7002024E3402002D
:101F00000471020224700202187002020528F8B55A
:101F100006460C4617461D4604D9124840F23B219E
:101F2000114B984714F0F00F04D00E484FF40F7186
:101F30000D4B9847012D04D90A4840F23D210A4B28
:101F400098470A4B360305EB0725334400213CB183
:101F5000E2074FEA540448BFCD50103189B2F6E78A
:101F6000F8BD00BF19340200D53C00000071020228
:101F70000528F8B506460C4617461D4604D91248F2
:101F800040F25921114B984714F0F00F04D00E483D
:101F900040F25A210D4B9847012D04D90A4840F2CE
:101FA0005B210A4B98470A4B360305EB0745334440
:101FB00000213CB1E2074FEA540448BFCD50103134
:101FC00089B2F6E7F8BD00BF51340200D53C0000ED
:101FD0000C710202052838B504460D4604D90448A0
:101FE0004FF41F71034B98472403034BE55038BD52
:101FF000CA330200D53C00002C700202052810B53F
:10200000044604D9044840F29321044B9847240322
:102010000022034BE25010BDEF330200D53C00001C
:1020200004700202052810B5044604D9044840F2A1
:102030009A21044B984724030122034BE25010BD20
:10204000FD310200D53C0000047002020528F8B5FD
:1020500005460C4616461F4604D911484FF429710F
:10206000104B9847302C06D0402C04D00C4840F23E
:10207000A5210C4B9847012F04D9094840F2A6210D
:10208000084B984704F1007101F51C312D034B59A1
:1020900017B123EA060600E01E434E51F8BD00BF0B
:1020A00038340200D53C00000528F8B504460F4638
:1020B000164604D928484FF42F71284B9847052C11
:1020C0002ED8DFE804F0030A11181F26282024491F
:1020D000244DA8472020244921E029202349214DCF
:1020E000A847212022491AE02A2022491D4DA8474D
:1020F0002220214913E02B2020491A4DA8472320F4
:102100001F490CE02C201F49164DA84724201E49CA
:1021100005E02D201D49134DA8471D492520A8473E
:1021200004F500531F334FF0FF321B03C3F8E420C4
:10213000C3F8F420C3F80421C3F81421C3F8242100
:10214000C3F83421C3F84421124B43F8347003EB35
:10215000C4046660F8BD00BF01340200D53C000035
:10216000ED1C0000511A00002D1C0000DD1C0000B9
:102170001D1C0000CD1C00000D1C0000BD1C00003B
:10218000FD1B0000AD1C0000ED1B00009D1C0000AD
:10219000DD1B0000786003002B39C9B202298EBF15
:1021A0000823084B5B565AB95843082390FBF3F0B9
:1021B000102310F00F0F90FBF3F018BF01307047A1
:1021C000C010704723350200002337B50403019384
:1021D000084B094AE35801930C234343D518D358BD
:1021E00013B101996A689847019A044BE25003B011
:1021F00030BD00BF28D00202B06003002CD0020224
:1022000008B50020014B984708BD00BFC921000058
:1022100008B50120014B984708BD00BFC921000047
:102220002DE9F341000300F1007000F514300024A3
:1022300001900127019B3846C3F8E0400225019B2D
:102240004FF00708C3F81841019B5A4EC3F81471A8
:10225000B047019BC3F814413846019BC3F81451A1
:10226000B047019B544A0521C3F818217822019BED
:102270003846C3F81441019BC3F81821019BC3F8E9
:102280001451019B4D4AC3F818213022019BC3F819
:102290001441019BC3F81821019BC3F81451019B01
:1022A000474AC3F81821019BC3F81441019BC3F8A6
:1022B0001851019BC3F81451019A424BC2F81831CE
:1022C000019AC2F81441019AC2F81811D821019A52
:1022D000C2F81451019AC2F818318522019BC3F843
:1022E0001441019BC3F81821019BC3F81451019BB1
:1022F000354AC3F81821B822019BC3F81441019B49
:10230000C3F81821019BC3F81451019B2F4AC3F84D
:102310001821019B3A44C3F81441019BC3F818816A
:10232000019BC3F81451019BC3F81821C822019BDB
:10233000C3F81441019BC3F81821019BC3F8145141
:10234000019A234BC2F81831019AC2F81441019A3C
:10235000C2F81811019AC2F81451019AC2F8183142
:102360001B22019BC3F81441019BC3F81821019B58
:10237000C3F81451B0470422019BC3F8E02042F295
:102380000302019BC3F8E080019B5F60019BC3F8DF
:10239000E4206022019BC3F8F020019B0120D3F8C8
:1023A0001041B04704F04804482CF6D102B0BDE813
:1023B000F08100BFC9610000440001001900010064
:1023C00017000100180001001000010011000100B9
:1023D0002200010008B50C4B196811B10B480C4BD9
:1023E00098470C4B196811B10B48094B98470B4B98
:1023F000196811B10A48064B98470A4B196811B180
:102400000948034B984708BD20500202A23402003D
:102410008D90010024500202BC34020028500202B8
:10242000D53402002C500202EE34020001282DE9BE
:10243000F04F054685B00C4604D962484FF405714B
:10244000614B9847237813F0F00F04D05D4840F2B9
:1024500015215D4B9847A37AA3F12A02032A06D9D6
:10246000302B04D0574840F21621574B9847637AD7
:10247000A3F12A02032A06D9302B04D0514840F296
:102480001721514B9847237B062B04D94D484FF415
:1024900006714D4B9847A37C032B04D9494840F261
:1024A0001921494B9847A37D012B04D9454840F297
:1024B0001A21454B9847237A032B04D9414840F20F
:1024C0001B21414B9847E37A012B04D93D484FF437
:1024D00007713D4B9847012394F80AA028032578FB
:1024E0003A4AE90702934FF0000348BFA17CB4F8D1
:1024F0000EB003938358DFF8E49044BF23F0030346
:102500000B43AF0742BFA17C23F00C0343EA8103D6
:102510006E0742BFA17C23F0300343EA0113290771
:1025200042BFA17C23F0C00343EA8113284F8144BA
:102530008350AAF12B03DFF8A8800744DBB2022BFB
:1025400088BF082680449CBF224AD65C0BFB06F657
:10255000F60806F52026002D30D0EB0727D5636856
:10256000227A47F8043C0AB9012300E000230293D1
:10257000E37A0393637A01930199039B0298090616
:1025800001EB0353217B03EB004303EB414358462C
:102590005146C8F80030104B9847A37D0BB9238AE9
:1025A00000E0A38A40EA03403860C9F800606D0883
:1025B000083709F1100908F10408CCE705B0BDE8B7
:1025C000F08F00BF8B350200D53C000034D00202F2
:1025D00008D00202453502009921000000D1020214
:1025E00038D00202012838B5044604D90C484FF40B
:1025F00033710C4B98470C4D0C2303FB04552B7A7D
:1026000023B90A4B2046984701232B720022084B1E
:1026100043F8242024036FF07042064BE25038BD8B
:1026200048350200D53C0000B060030021220000C4
:10263000A860030024D00202012870B505460C46AC
:10264000164604D910484FF43871104B984714F0CF
:10265000F00F04D00C4840F2E1210C4B9847012EBA
:1026600004D9094840F2E221084B9847084B2D0352
:102670002B443CB1E20703F1040348BF43F8046C68
:102680006408F6E770BD00BF26350200D53C0000A7
:1026900048D00202012870B505460C4604D91448FA
:1026A00040F2F921134B984714F0F00F04D0104872
:1026B00040F2FA210F4B98472146002371B1CA0717
:1026C00009D50D4EDCB20122043456F82500A24093
:1026D000024346F8252049080133EFE72B03064A59
:1026E00003F1007303F5343352F825201A6070BDEE
:1026F00067340200D53C0000A8600300012870B5D3
:1027000005460C4604D9154840F20D31144B984744
:1027100014F0F00F04D0114840F20E31104B9847DE
:102720002146002379B1CA070AD50E4EDCB2012238
:10273000043456F82500A24020EA020246F825207B
:1027400049080133EEE72B03064A03F1007303F552
:10275000343352F825201A6070BD00BF7A3402006D
:10276000D53C0000A8600300012870B504460D4662
:10277000164604D91B4840F225311B4B984715F0EB
:10278000F00F04D0174840F22631174B9847012E1E
:1027900004D9144840F22731134B984736020023DE
:1027A000ADB1EA0710D5114A4FF48071994052F843
:1027B000240020EA010106FA03F042F8241052F83E
:1027C0002410014342F824106D080133E8E7230385
:1027D000064A03F1007303F5343352F824201A60DB
:1027E00070BD00BF07350200D53C0000A8600300A3
:1027F0000128F8B506460D46174604D9134840F29D
:102800003F31134B984725B910484FF45071104B86
:102810009847104C3EB1012E0BD10F4B2720DD60A5
:102820001F610E4904E00E4926200B4B83E8A000EF
:10283000A0471E200B49A0470B4B1E2098474FF086
:10284000FF330A4A136093601361F8BD73350200C9
:10285000D53C0000511A0000B060030011220000B6
:1028600001220000D5230000E119000040500202BF
:10287000012810B5044605D90B4840F263310B4BD3
:10288000984710BD30B90A4B26209847094B1C6069
:102890005C6010BD012806D1054B27209847002217
:1028A000044BDA601A6110BD5A350200D53C0000B5
:1028B000A11A0000B0600300012870B505460C465F
:1028C000164604D90C484FF45E710C4B9847012E04
:1028D00004D9094840F27931084B98472D0308493B
:1028E0006A582EB1E44324F0704303EA020400E086
:1028F00014436C5070BD00BF8C340200D53C000006
:1029000024D0020213B5044618B980484921804BEF
:10291000984723885A1E012A06D9B3F5807F03D031
:102920007A484A217A4B9847236C1BB977484B2148
:10293000774B9847636C1BB974484C21744B98478C
:10294000A36C1BB971484D21714B9847E36C1BB9BF
:102950006E484E216E4B984723884FF00C72012B26
:1029600013602DD1A37903F00703022B05D9042BA3
:1029700003D066485521664B9847A37913F0E00FC2
:1029800009D003F0F003302B05D0F02B03D05F48C3
:1029900057215F4B9847636823F07F424FF00C73D9
:1029A0001A62A26822F07F425A62E26822F07F42F5
:1029B0009A62226922F07F42DA6201221A6184E07F
:1029C000022B2DD1A37D03F00703022B05D9042B85
:1029D00003D04E4866214E4B9847A37D13F0E00F7D
:1029E00009D003F0F003302B05D0F02B03D047487B
:1029F0006821474B9847636923F07F424FF00C737F
:102A00001A64A26922F07F425A64E26922F07F428E
:102A10009A64226A22F07F42DA6401221A6354E047
:102A2000B3F5807F51D194F8323003F00703022BC5
:102A300005D9042B03D035487721354B984794F8B6
:102A40003E3003F00703022B05D9042B03D02F4897
:102A500079212F4B984794F82A3003F00703022B73
:102A600005D9042B03D029487B21294B984794F89A
:102A70003A3003F00703022B05D9042B03D0234877
:102A80007D21234B98474FF00C73626AC3F8902066
:102A9000A26AC2F31202C3F89420E26AC3F8982033
:102AA000226BC2F31202C3F89C20626BC3F8A02011
:102AB000A26BC2F31202C3F8A420E26BC2F31202AB
:102AC000C3F8A8200122C3F88020124B01934FF0D5
:102AD0000C731A68022A05D0B2F5807F04D01B69F6
:102AE000009304E01B6B01E0D3F880300093009B5F
:102AF000DB0704D5019B013B0193002BE7D1019B30
:102B0000002B14BF0320022002B010BDAC35020020
:102B1000D53C000000CA9A3B30EE103F012003F084
:102B2000070304339840704738B5084B04460D46F8
:102B3000984743422340AB4203D207EE363F03445B
:102B4000F9E7002307EE9A3F38BD00BF192B0000BC
:102B500038B5084B04460D46984743422340AB42E4
:102B600003D207EE3E3F0344F9E7002307EE9A3F06
:102B700038BD00BF192B000008B50144014B984730
:102B800008BD00BF512B000008B50144014B984718
:102B900008BD00BF292B000070B510B1202500260C
:102BA00008E0086070BD222B08D11D4601260023D5
:102BB00000F8013B0378202BF5D1F8E704462346C3
:102BC00014F8012B0D2A0CD00A2A0AD00EB1222AA1
:102BD00000E0202AF3D104E00D2A06D1002203F8F8
:102BE000012B1A78AA42F7D1F8E70A2AF6D0002A70
:102BF00008BF00230B6070BDF0B510B1154600246E
:102C000008E00860F0BD222B0CD11D4601240023F2
:102C100000F8013B03789342F5D1222A04BF222514
:102C20000124F4E707463B4617F8016B0D2E01D14E
:102C30001A460DE00A2EFBD014B1222EF3D1F7E78D
:102C40009642FBE70D2E0CD1002602F8016B24B949
:102C50001678AE421346F5D1F6E7002DF8D10133D0
:102C600001E00A2EF0D01A78002A08BF00230B607A
:102C7000F0BD72B6BFF34F8FBFF36F8FFEE77047A3
:102C800037B50B4B8DF80700984701280DD0094B3D
:102C90000DF10701084C224618680023074DA8478C
:102CA000236813B10122064B1A6003B030BD00BF88
:102CB0003168000000610300FC600300255600003D
:102CC0009C66030007B5084B01A99847024628B146
:102CD000064B07491B68D868064B98470122064BEC
:102CE0001A7003B05DF804FB992B000028AD0200B8
:102CF00081360200517F0100D460030008B5054B06
:102D000005481B68D968054B98470122044B1A7087
:102D100008BD00BF28AD02008F360200CD7F010044
:102D2000D46003002DE9F3413D4E01A9B0473D4D6C
:102D3000804668B93C4C3D4E3D482368D968B04751
:102D400023683C48D968B0472B681B681E694CE073
:102D500039493A4FB847044640B140463849B84728
:102D60000028E7D12B681B68186918E0019801A9B1
:102D7000B0470028F1D021461022324B98472B68EB
:102D80001B6884B218692B685B689842E5D0038899
:102D9000A342066901D12C4B98473046F3E72B68D4
:102DA0005B689842C6D00469274B98472046F6E7EF
:102DB000964229D0002EFBD023683288D868B368A9
:102DC000B3B1012B16D0022B16D0042B16D0082B32
:102DD00016D0102B16D01D4F1D49202B0CBF0B46B3
:102DE0003B461C491C4FB84736692B685A68DFE7D9
:102DF0001A4BF6E71A4BF4E71A4BF2E71A4BF0E7D7
:102E00001A4BEEE71A4BECE722681A49D0689A6829
:102E1000114B98470122184B1A7002B0BDE8F0819F
:102E2000992B0000CC6A030028AD0200CD7F010081
:102E30003B3702004B3702005B370200E59601008A
:102E40005E37020085A7010035C200001837020076
:102E50002037020061370200517F0100A4360200D2
:102E600094360200B6360200C6360200DA36020098
:102E7000F93602006C370200D4600300F0B585B06B
:102E800001A9284CA047284D064658B32749A84712
:102E900018B90122264B1A7041E030462549A8474F
:102EA00010B9234B18703AE030462349A847C8B9F7
:102EB000019801A9A0470346A0B1204A1068928852
:102EC000029018461E4BADF80C209847C0B205285A
:102ED00025D81C4B04AA104410F8082C1B689B68CA
:102EE0009A761CE00024184E184806EB041631466A
:102EF000A847074680B9164BF068164C1B68D9687E
:102F0000154B98470122154B39461A703A46144B17
:102F100018683B46A04702E001340A2CE3D105B013
:102F2000F0BD00BF992B0000E59601007C37020040
:102F300038A102005B3702007F370200B93502007A
:102F40006D7C0100E46B0200C03502008237020094
:102F500028AD020031540000CD7F0100D460030091
:102F6000C86003002DE9F743654B01A99847654FF9
:102F70008046E8B90446644D644805EB04152946CB
:102F8000B847064680B9624BE868624C1B68D9684E
:102F9000614B98470122614B31461A703246604BB3
:102FA00018683346A047A8E001340A2CE3D1A4E016
:102FB0005C49B847002844D1554C574E5A482368BD
:102FC000D968B04723685948D968B0474FF40060C2
:102FD00057494FF47772574B9847054628B95448DC
:102FE0004FF47771544B984705462846534B984702
:102FF00023682A465249D868DFF86891C84740F2EA
:10300000DF3228464A494F4B98474F4B9847236831
:10301000D96805464D48B04723684D48D968B04740
:1030200023684C492A463B4CD8684B4B1B68C84721
:1030300001223A4B00211A700A46394B18680B4698
:10304000A04740464549B847002856D14FF4806014
:10305000374940F2E932374B9847054628B934489A
:1030600040F2E931344B98470546294C2A4E3C48FA
:1030700023683C4FD968B04723682B48D968B047CC
:1030800023682A48D968B04728462C4B98472368BC
:103090002A462B49D868B8472B4B98472368D968EC
:1030A00080462A48B04723682948D968B047236832
:1030B00028494246174CD868274B1B68B84701225D
:1030C000164B00211A700A46154B18680B46A0478C
:1030D000254B0DF103014FF47A7218680023234C3D
:1030E000A0470128C1D19DF80330032BBDD128464C
:1030F0004FF480620E49134B984703B0BDE8F0834C
:10310000992B0000E5960100C035020087370200C8
:1031100028AD020031540000CD7F0100D4600300CF
:10312000C86003008A3702008D370200BD370200F5
:10313000043B020019540100FD3C0000A569000099
:1031400067370200D554010019530100EB37020024
:10315000C9370200F9370200A066030006380200F2
:103160008F360200517F010000610300B957000053
:1031700073B5154B01A99847044608B100250FE027
:103180001034B02C1BD0114A114B12682344D16863
:1031900053F8040C0F4B9847F2E701350A2D0ED077
:1031A0000B4E20460C4B06EB05163146984700287F
:1031B000F3D1064BF0681B68D968064B984701228B
:1031C000064B1A7002B070BD992B000028AD0200AA
:1031D000C0350200CD7F0100E5960100D4600300F8
:1031E00073B5194B01A99847184E044670B9184D8C
:1031F000184805EB04152946B04718B9164BE8687E
:103200001B6819E001340A2CF1D11BE00025134B97
:10321000204603EB05135968B04738B9104B0C2210
:1032200002FB05350F4B686898470BE00135052D0B
:10323000EDD1094B0C481B68D9680C4B984701220B
:103240000B4B1A7002B070BD992B0000E59601007F
:10325000C03502000938020028AD0200A03C02007F
:10326000B0630300F95D00000E380200CD7F01005D
:10327000D46003002DE9F04F64498DB0044640F25C
:103280000A425020624B9847074628B95F4840F2EF
:103290000A41604B98470746204607A95E4D08AC97
:1032A000A847002800F08B805C495D4B9847834617
:1032B000002840F0848007A90798A84707A9064678
:1032C0000798A8478046002879D0002E77D021465D
:1032D0003A223046534E544DB047A84721463A2231
:1032E00081460898B047A84721465A460190089859
:1032F000B047A84721462F2282464046B047A847FC
:1033000021462F2280460898B047A84721465A46B2
:1033100000900898B047A847009BDDF804C001332F
:1033200099B280B2A0F2B2734BB1A0F2B47210F0B5
:10333000030F4FEA920218BF01329D1A01E01A46AC
:103340001D464FF4B7735A4340F26D1303FB052338
:1033500000256E1C8E4218DA0B2D14D80122AA40CB
:1033600040F6D52515405DB912F4A56F0AD1950731
:1033700009D510F0030F14BF1C221D22134402E0D4
:103380001F3300E01E333546E3E73C211FFA8CFC77
:103390001FFA89F201FB0CFC4FF461691FFA88F8EF
:1033A00009FB02C908F1FF389844204B19FA8AF941
:1033B0001F4D03FB0893089394E80F00A84702AD44
:1033C00028461C4B984795E80F0084E80F002046DC
:1033D000194B98472046194B9847194C5021194AC8
:1033E00003463846A047184B3A4618491B68D86828
:1033F000174B98470122174B38461A7040F2264265
:103400000249154B98470DB0BDE8F08F223B0200F2
:1034100019540100FD3C0000992B000022380200E5
:10342000E5960100F92B00006D7C01008051010040
:10343000AD440000C944000061BE0100A585010043
:103440003D9A01002538020028AD020067370200CE
:10345000517F0100D4600300D554010070B50E46C1
:1034600015460C46A31BAB4207DA054814F8012B9E
:10347000C3681A70034B9847F4E725EAE57070BDFE
:103480003CA1020005040000F8B50E4615460C46A6
:10349000A31BAB4208DA064F064B38469847FB6839
:1034A0001B7804F8013BF3E725EAE570F8BD00BF9F
:1034B0003CA102006104000038B54FF400211A4A13
:1034C000F3231A4C1A48A0471A4C1B4D00F5002351
:1034D00020606360236100F5FF2303F5C063606132
:1034E000E0600120A360A84700210322A061012021
:1034F000124CA047124B18600120A847114B002125
:10350000032218600120A0470F4B01210022186000
:103510000520A0470D4C0E4B186020460D4B9847D8
:1035200020460D4B984738BD2A3B02002553010029
:10353000F46B0300D8600300BD5500003553000054
:10354000C860030004610300D06003003CA10200D6
:103550000061030085030000BD0400000CB4594B5A
:103560001B782DE9F04F05468BB0002B00F0A480AE
:10357000554B1B689B689B7E11EA030B00F09C80F7
:10358000DFF878910021514C0B46514F4FF0FF323C
:10359000D9F80000B846B84700210B464FF0FF327B
:1035A000A069B84700210B460A46DFF854A1A0697C
:1035B0005746E668D04723689E4202D0A3689E42E1
:1035C00002D3A668636903E06369B34228BF6668F3
:1035D000F61A06A83F4BD4F814A098473E4B06A80D
:1035E00098470BF1FF31DFF81CC14FF47A72C9B272
:1035F00007298EBF4FF0040B384B13F801B08368D6
:10360000009343680193036802930023DDE90801F6
:10361000E047334B50463146DFF8D4A053F82B3007
:1036200004932B4603922F4AD047B04205461CD242
:1036300015ABC0EB060B6069594606932844149AF3
:10364000DFF8C4C0E047002805DA204B5946264A77
:1036500058692844D0470544B54206D26069711BB9
:10366000224A2844224B98470544B54204D3214AB4
:1036700013680133136019E062690021134B15448C
:10368000A268A06995424FF0FF3224BF1D611D68FA
:103690000B46C04700210A460B46A0696561B84742
:1036A000154B00210A4618680B46B8470021D9F887
:1036B00000000A460B46B8470BB0BDE8F04F02B019
:1036C000704700BF38A10200E46B0200D86003001D
:1036D000B9570000C9440000A5850100FC3A02006A
:1036E0006036020034380200513802006C380200A3
:1036F00045950100F8600300D060030004610300F9
:1037000031540000FD78010005D701000FB4F7B572
:103710000C4D08AC0C4E0D482B6854F8047BD9684E
:10372000B0472B68394622460194D868084B984721
:103730002B680848D968B04703B0BDE8F04004B032
:10374000704700BF28AD0200CD7F01007438020031
:10375000FDD50100853802000FB4074B07B504AA58
:103760001B6852F8041B0192D868044B984703B0B9
:103770005DF804EB04B0704728AD0200FDD50100F0
:10378000012310B50370134B9847134B134814498A
:103790009847144B9847144B0021144C4FF0FF32BC
:1037A00018680B46A047124C237833B1114B1B68A5
:1037B000D868114B984700232370104C2378002BB6
:1037C000E9D00C4B1B6898680B4B9847002323707B
:1037D000E1E700BF3173000059370000BE38020036
:1037E000193B020081730000C8600300B957000054
:1037F000D460030028AD0200097E0100F4600300DC
:103800002DE9F04FA04985B004464FF49C7240204A
:103810009E4B9847824628B99B484FF49C719C4B1D
:10382000984782469B4B9C4898470C2358439B4B98
:103830001B5C012BF6D12370994B9847994B9A4802
:1038400091499847994B9847DFF87C8254469849AC
:103850004746984AD8F80030DFF87892964DCB4624
:10386000D868964B984701230021954A13700B4660
:10387000D9F800000A46A84700230193914B0DF1A7
:103880000B014FF0FF32DFF850C218680023E04709
:103890009DF80B10112900F0548108D808290ED08A
:1038A0000D2900F0B280032940F0218163E01B293B
:1038B00061D07F2903D0132940F0198141E1019B98
:1038C000002B00F047813868013B013C019382687E
:1038D0007D499368013B002B936010DA9669B342EF
:1038E00009DB136808221A7008688268136819785F
:1038F0000A290AD100E00821744B984707E01368B1
:1039000008221A700B689A681368013313603868CC
:103910006D4982689368013B002B936010DA9669C9
:10392000B34209DB136820221A70086882681368A2
:1039300019780A290AD100E02021644B984707E052
:10394000136820221A700B689A6813680133136099
:1039500038685D4982689368013B002B936007DA01
:103960009669B34202DB1368082280E0082187E0F1
:1039700013680822B4E0002353492370D8F80000EC
:1039800082689368013B002B936010DA9469A3422C
:1039900009DB13680D221A700868826813681978A9
:1039A0000A290AD100E00D21484B984707E0136827
:1039B0000D221A700B689A68136801331360D8F8E7
:1039C0000000414982689368013B002B936010DA44
:1039D0009469A34209DB13680A221A700868826896
:1039E000136819780A290AD100E00A21374B984751
:1039F00007E013680A221A700B689A68136801338B
:103A000013600122324B1A70DDE004F8011B0A2317
:103A100038688DF80B30DFF8B0E082689368013BBE
:103A2000002B93600EDA9669B34208DB13681970B5
:103A3000DEF800008268136819780A2908D1234B40
:103A4000984707E013681970DEF800309A68136829
:103A50000133136038681C4982689368013B002B6E
:103A600093603BDA9669B34209DB13680A221A7045
:103A700008688268136819780A2935D100E00A219C
:103A8000124B98475AE000BF7436020019540100E7
:103A9000FD3C0000A149000082370200B063030032
:103AA0003173000059370000BE38020081730000F6
:103AB000C9380200CD38020031540000517F0100A6
:103AC000D46003000061030028AD020079D7010033
:103AD000F4600300C8600300B957000013680A22AD
:103AE0001A700B689A6813680133136026E03B680C
:103AF00038489B689A68013A002A9A6012DA9E69EF
:103B0000B24209DB1B682170197000688268136873
:103B100019780A290CD102E02170006882682E4BC6
:103B2000984707E01B682170197003689A6813684A
:103B300001331360019B0134013301930122274BB0
:103B40001A7000210B460A46DBF80000A847019BCB
:103B50003D2B04D89DF80B300A2B7FF48FAE002349
:103B6000504603A923701E4B98470378002B3FF45F
:103B70006BAE0646037813F0DF040BD0194A1268C7
:103B80001A44527802F00302012A08BF203300F8D9
:103B9000013BEFE7144F3046144B07EB041739464F
:103BA000984760B101340A2CF4D1D8F8003010489D
:103BB000D968104B984701230F4A137003E0BB6884
:103BC0000398984740E60021D9F800000A460B46C2
:103BD000A84739E628AD020079D70100F460030058
:103BE000992B0000FCA80200C0350200E5960100F8
:103BF000CF380200CD7F0100D46003002DE9F047EB
:103C00000446274B274898470C235843264B1B5CF8
:103C1000012BF6D12370254B9847254B2548264983
:103C20009847264B9847264B0021264C4FF0FF32F1
:103C3000254F18680B46B84700210B464FF0FF325E
:103C4000A069B8470021214E0A46A0690B46D4F866
:103C50001490B046D4F810A0B047E568C5EB09064B
:103C6000C5EB0A03A94598BF1E464D45DBD0002E83
:103C7000FBDD294632463544154B02209847554511
:103C80004FF000010B464FF0FF32A06908BF2568D6
:103C9000B8470021A0690A460B46E560C047DDE74A
:103CA000A149000082370200B063030031730000B5
:103CB00059370000BE3802000A3B02008173000041
:103CC000D0600300D8600300B957000031540000F1
:103CD0005D34000008B50A46034672B6BFF34F8F45
:103CE000BFF36F8F02481946024C034BA047FEE713
:103CF000333B02008D900100433B020008B50A46A9
:103D0000034672B6BFF34F8FBFF36F8F0248194659
:103D1000024C034BA047FEE7333B02008D900100AD
:103D2000513B02007FB51E4D440106462B195B7FB7
:103D3000002B31D101201B4B9847285118B91A4844
:103D40003D211A4B98471A4B012000210322984726
:103D50002B19586018B914484021144B9847092E64
:103D60008DF8046001D00F2E01D1022300E0012361
:103D70008DF80530002301A88DF806302C448DF80D
:103D80000730ADF808300B4B03930B4B98470B4BA8
:103D900001A8984701236377002004B070BD00BFDD
:103DA00008610300BD5500005F3B0200D53C0000E8
:103DB00035530000C13D00006D0C0000FD100000F7
:103DC000042937B5044604D0072919D002292BD17C
:103DD0000DE0164A4301D1180D8B2DB10A46097F1B
:103DE0001432134B98471FE005230B720DE00F4B65
:103DF00003EB40131A8A0AB1072205E0062203E00A
:103E00000A4B802203EB40131A7202A9002341F8E7
:103E1000043D064B03EB4414064B60689847019B36
:103E200013B10122044B1A6003B030BD08610300D6
:103E3000B50E0000F55600009C660300F8B5094F6A
:103E400045017E19737F012B09D1074B984778599B
:103E5000064DA8477068A84700207077F8BD01207C
:103E6000F8BD00BF086103006D130000415A000057
:103E70002DE9F04F85B0BDF83CA080460E4600927B
:103E800099462BB9BAF1000F0BD12E487C210CE0DA
:103E9000009B1BB92B487D212B4B9847BAF1000F93
:103EA00005D00E9B1BB927487E21274B9847274CEE
:103EB0004FEA481504EB050C9CF81D300CF1180B6B
:103EC000002B38D0002160594FF47A720B46204FF6
:103ED000CDF804C0B847DDF804C001282DD10E9AF2
:103EE000B1B2009B4046CCF8142062198BF80460F4
:103EF000ACF818A0ACF81090CCF80C30B9F1000F69
:103F000002D00C32134B01E0134B14326619984760
:103F100000210B464FF0FF327068B8470021337A1A
:103F200060598DF80F300A460B460C4CA0479DF89F
:103F30000F00C0B202E0022000E0802005B0BDE822
:103F4000F08F00BF693B0200D53C00000861030010
:103F5000B9570000C50D0000B50E00003154000037
:103F6000012930B585B001D0032904D11C0A8DF890
:103F70000C40012400E000240DF1100E651C744477
:103F800004F8043C8C1E089B012C00938CBF012379
:103F90000223114603AA0193EBB2024CA04705B0DD
:103FA00030BD00BF713E000002297FB5089E357804
:103FB0000DD0032906D001291DD11C0A8DF80C4013
:103FC0000C4619E0190A01248DF80C1000E00024B9
:103FD00004A9214401F8043C631C04A951FA83F3A9
:103FE00003F8045CE31C0234DBB251FA84F4717808
:103FF00004F8041C0CE0002404A9214401F8043C4A
:10400000A31C013404A951FA84F4DBB204F8045C63
:104010000021044C00910191114603AAA04704B06D
:1040200070BD00BF713E000002291FB534D00529C4
:1040300013D0012933D104ABFF22ADF80C1002A933
:1040400003F8092D0293174B1878174B9847174B15
:104050009DF807001B68984721E0154B1B6898479F
:10406000144B00210A461868134B9847014670B15B
:10407000124B9A880AB11B681BB911487521114B64
:104080009847084B18780D490F4B984707E00F4B9E
:1040900018680F4B984702E00E4B1B68984705B015
:1040A0005DF804FB60A10200811000007063030052
:1040B00080630300686303005159000078630300C4
:1040C0008A3B0200D53C0000D50F0000746303005A
:1040D000F55600008463030038B50268114B1A607E
:1040E0004268114B1A608268104B1A60104CC2680B
:1040F0002046104B1A60104B984720460F4B002467
:1041000098470F4D0F4B2146032201201C609C80D5
:10411000A8470D4B2146032218600120A8470B4BEE
:10412000186038BD70630300846303006C63030090
:1041300060A10200806303006D0C0000FD10000010
:104140003553000078630300686303007463030061
:1041500070B50D46064600B119B913485821134BE6
:104160009847134C5A221049124B206898472660F2
:10417000114E00210A460B46A58030680F4DA84716
:104180000F4B00210A4618680B460E4DA847012820
:1041900009D100210B460A463068A8470A4B214640
:1041A00018780A4B984770BD7A3B0200D53C000056
:1041B00078630300D55401006863030031540000A4
:1041C00074630300B957000060A10200D50F00001E
:1041D00038B5124B1D461A68126894692B685B68E3
:1041E0009C4219D06268A3689342227B0ED1012AB7
:1041F0000CD123690BB1606998476278012A4FF0AE
:10420000000301D1227304E0237303E0012A01D1EA
:104210000133A360A469E1E738BD00BF88630300F0
:1042200070B50C201E4938221E4EB0471E4D286026
:1042300018B91B4838211D4B984704463A2228607C
:104240001C201749B047206018B1174B1C68206824
:1042500003E013483A21154B984720603C221C206C
:104260000F492C68B047606018B10F4B1C6860683C
:1042700003E00B483C210D4B98472B6860600C48CD
:1042800093E806008A61926100229A60012303701C
:104290000A234360074B8360074B984770BD00BFFC
:1042A000963B02001954010088630300FD3C0000A6
:1042B0008C630300D1410000F1060000F0B510B19D
:1042C0001546002408E00860F0BD222B0CD11D46E5
:1042D0000124002300F8013B03789342F5D1222A00
:1042E00004BF22250124F4E707463B4617F8016B7B
:1042F0000D2E01D11A460DE00A2EFBD014B1222E4C
:10430000F3D1F7E79642FBE70D2E0CD1002602F819
:10431000016B24B91678AE421346F5D1F6E7002DAD
:10432000F8D1013301E00A2EF0D01A78002A08BF34
:1043300000230B60F0BD0000544A2DE9F04F97B008
:1043400007AB10680AAC5168002703C39068504A55
:10435000504D186004AB10685168127A03C31A708C
:104360000FCD0FC40FCD0FC495E80F00DFF83481D7
:1043700084E80F0003A93A2204A8C047DFF8289177
:10438000C84703A93A2204460398C047C84703A96F
:10439000002206460398C047C847202203A90546C5
:1043A00007A8C0470DF1280C02465CF827101046FC
:1043B000394B1FFA87FA01920137CDF800C09847B0
:1043C000DDF800C0019A83460028EED103A920221F
:1043D0000398C047C84703A95A4607460398C047F1
:1043E000C8470AF1010E1FFA8EFE80B2A0F2B27326
:1043F0004BB1A0F2B47210F0030F4FEA920218BF53
:104400000132991A01E01A4619464FF4B7735A431C
:1044100040F26D1303FB0123012171451DDA0122D6
:1044200001F1FF3C02FA0CF240F6D52C02EA0C0C2A
:10443000BCF1000F0CD112F4A56F0BD112F0020FDA
:1044400009D010F0030F14BF1C221D22134402E0F8
:104450001F3300E01E330131DFE73C21B6B2A2B2C8
:104460004E434FF46164002004FB0264BAB2013A87
:104470001A440A4B002114FA85F403FB0243084A4C
:104480001360C2E9020117B0BDE8F08FD43B02000F
:10449000E03B0200A43B0200E596010080510100D0
:1044A000A0630300BD4200006D7C01001FB50DF14B
:1044B000100E0EE90F00034B009A1A6005B05DF86C
:1044C00004FB00BFA0630300044A30B51168D2E9C1
:1044D00002450160C0E9024530BD00BFA063030092
:1044E00038B5094C4FF47A720023084DD4E9020123
:1044F000013041F10001C4E90201A847134302BFA2
:1045000023680133236038BDA0630300FD780100F8
:10451000F0B5074685B00C4615461E461BB9134834
:104520002921134B9847B4F5005F03D30F482A2184
:104530000F4B98476319B3F5005F03DD0B482B2140
:104540000B4B9847230A8DF80D4038468DF80C30F8
:104550005021084B03AA009601959C680223A047AE
:10456000073818BF012005B0F0BD00BF2B3C02008A
:10457000D53C00004CA102002DE9F34781460D46D1
:10458000924698461BB92D4840212D4B9847B5F5CA
:10459000005F03D329484121294B984705EB0A03C3
:1045A000B3F5005F03DD25484221254B98470020E5
:1045B000BAF1000F3FD000283CD105F01F040AEBF0
:1045C0000403202BCCBFC4F1200454464FF05D02FD
:1045D000C8BFA4B2A71C38461A491B4B98470646C9
:1045E00020B918485D21194B984706462B0A4146C9
:1045F00022463370B01C7570A044154B2544984773
:10460000002350210093324601934846114BC4EBDE
:104610000A04ADB21FFA84FAD3F808C0BBB2E0476F
:10462000084969220C4B074630469847781F18BF47
:104630000120BDE7012002B0BDE8F087373C020051
:10464000D53C0000193C020019540100FD3C00005B
:10465000718E01004CA10200D554010037B5094C00
:10466000012A0D464FF00C0218BF0221E46808BF72
:10467000002100932B46A047A0F1800358425841E7
:1046800003B030BD4CA102001FB504AC0B460021A5
:1046900004F8012D054A009414690C22A047A0F1EA
:1046A00080035842584104B010BD00BF4CA1020025
:1046B00073B501220D460DF107031B21094E044677
:1046C000B04760B99DF8072002F07F0242EAC512A8
:1046D00020461B21D2B2044B8DF80720984702B028
:1046E00070BD00BF5D4600008946000037B5054635
:1046F0000C4619B90A488A210A4B984728460521D1
:10470000022201AB084DA84740B99DF804209DF84E
:10471000053043EA021383F40063238003B030BD05
:10472000443C0200D53C00005D4600000729F7B577
:1047300005460E4656D8002202AB8DF805201621FC
:104740008DF8062003F8012D0122284FB8470446B2
:1047500050B99DF8072002F07F0228461621244B0D
:104760008DF80720984704461B2101220DF105030F
:104770002846B8471F2101220DF106032043C4B289
:104780002846B847204310F0FF002CD106F0030361
:104790009DF8052006F0040622F0300242EA0312DA
:1047A0009DF8063023F0400343EA06161B218DF8DE
:1047B000066028460E4E8DF80520B0471F219DF853
:1047C000062004462846B0479DF8072042F08002A4
:1047D00016218DF807202043C4B22846B047204355
:1047E000C0B200E0022003B0F0BD00BF5D46000093
:1047F00089460000F8B506460F4619B90B48A421B2
:104800000B4B98470025E9B20A4B3046984707EB17
:104810004501094B044630469847072D40EA0400FD
:10482000C0B202D001350028EDD0F8BD583C0200DE
:10483000D53C00002D470000ED46000037B5094C7F
:10484000012A0D464FF0570218BF0221E46808BF45
:10485000002100932B46A047A0F180035842584105
:1048600003B030BD4CA10200F7B506460D4619B99C
:1048700016486821164B9847002430460021022232
:1048800001AB144FB847D0B99DF805209DF804300E
:1048900043EA02230134C3F309021905E4B22A8072
:1048A0000FD50746F9B2013712B1511E0A40F9E798
:1048B000C3F3802301F00102934202D104E00328F4
:1048C00002D1032CD9D9032003B0F0BD713C020002
:1048D000D53C00003D48000003291FB50ED804ABAD
:1048E000572203F8011D00210093064B1C690B237E
:1048F000A047A0F180035842584100E0022004B0D4
:1049000010BD00BF4CA10200F8B506460F4619B90C
:104910000B4894210B4B98470025E9B20A4B3046CF
:10492000984707EB4501094B044630469847032D4D
:1049300040EA0400C0B202D001350028EDD0F8BD35
:10494000863C0200D53C0000D948000069480000C0
:104950001FB5490004AB41F00401572203F8011DC3
:1049600000210093044B1C690223A047A0F180039F
:104970005842584104B010BD4CA10200074B4822D8
:1049800013B5022100901220DC680023A0470728FD
:1049900014BF0320002002B010BD00BF4CA10200D4
:1049A00070B506464FF0FF3500240A4B304603EB46
:1049B00004135968084B9847002808BF254604F19E
:1049C000010414BF00230123052C01D0002BECD0DF
:1049D000284670BDA03C0200E596010038B52A4C7F
:1049E000236C1BB929487D21294B9847636C1BB95F
:1049F00026487E21264B9847A36C1BB923487F216C
:104A0000234B9847E36C1BB920488021204B9847E3
:104A10001021A28861F309020123A280A27963F325
:104A2000020262F00F021848A27122896FF3090294
:104A3000184D2281A27A63F3020262F00F022380F2
:104A4000A272A2896FF30902A281A27B63F3020220
:104A500062F00F02A273228A6FF309022282A27C03
:104A600063F3020262F00F02236CA2744FF4A0629F
:104A70001A60A847A36C186800F001030BB1024844
:104A8000F7E7C0B238BD00BFF06303001C3D020071
:104A9000D53C00000529000008B5044B984710F0EC
:104AA000010F14BF0120022008BD00BFDD49000036
:104AB00010B5274C236C1BB92648B621264B9847C6
:104AC000636C1BB92348B721234B9847A36C1BB9D0
:104AD0002048B821204B9847E36C1BB91D48B921E9
:104AE0001D4B98470821A28861F309020123A28087
:104AF000A27963F3020262F00F022380A27122897D
:104B00006FF3090212482281A27A63F3020262F073
:104B10000F02A272A2896FF30902A281A27B63F342
:104B2000020262F00F02A273228A6FF3090222824C
:104B3000A27C63F3020262F00F02236CA2740622CD
:104B40001A60064B9847064B98478307FBD510BD64
:104B5000F0630300323D0200D53C0000052900004F
:104B6000DD4900002DE9F84F8D4D1F4604468A4669
:104B700016462B6C23B98B484FF49D718A4B98478E
:104B80006B6C23B9874840F23B11874B9847AB6C5D
:104B900023B984484FF49E71834B9847EB6C23B93B
:104BA000804840F23D11804B9847012F95F806E070
:104BB0004FF00100A97A08BF0236AA7B87424FEA6C
:104BC000960806F00309764B28802BD167F3020E76
:104BD00098886EF00F0E4FF0080C6CF3090083F804
:104BE00006E04FF0060E988018896EF309001881D0
:104BF000042060F3020161F00F0160F3020262F031
:104C00000F02997299896EF309019A737200998162
:104C1000198A62F309019A7C60F3020219826FF328
:104C200007122EE060F30202B3F804C062F00F0234
:104C300060F3020E6EF00F0E4FF0200B60F30201D6
:104C40009A731A8A6FF309026BF3090C61F00F0172
:104C500083F806E04FEAC60E0EF47E7E1A829A7C36
:104C600060F30202A3F804C062F00F02B3F808C0B8
:104C700099726EF3090C99896FF30901A3F808C0C2
:104C800099819A744FEA88032A6CD1188A4203D01A
:104C9000002042F8040BF9E7B9F1020F2A6C28D082
:104CA000B9F1030F39D0B9F1010F10D0012F08D19C
:104CB0002106C4F30F24D15044F46B046A6C1344EE
:104CC00041E024F07F4444F04074D4503CE0012F94
:104CD00008D1002124F07F44D15044F06B446A6C29
:104CE000134430E02402D4506A6C134403225A6007
:104CF0002AE0012F08D100212402D1506A6C13440C
:104D0000EB225C609A601FE02104C4F30744D15099
:104D100044F440746A6C134415E0012F0BD1002158
:104D2000D1506A6C13442204C4F3074444F46B4426
:104D30005A609C6008E02106C4F30F24D15044F46B
:104D400040346A6C13445C601548184B9847B9F1BD
:104D5000000F01D008F10108012F08BF023E731EA9
:104D600000215644414517D0AA6C012B52F821204E
:104D700006F8012C10D4100A022B06F8020C0BD4F2
:104D8000100C032B06F8030C06D4120E043B06F895
:104D9000042D01D40131E5E70220BDE8F88F00BF02
:104DA000F06303004C3D0200D53C000005290000E3
:104DB00070B52E4C05460E46236C23B92C4840F2A4
:104DC0000D112C4B9847636C23B929484FF4877118
:104DD000284B9847A36C23B9254840F20F11254B67
:104DE0009847E36C23B922484FF48871214B9847C8
:104DF000214B9847012838D0204B25F07F45984714
:104E00002021A28861F309020123A280A27963F321
:104E1000020262F00F0245EA0665A27122896FF371
:104E2000090223802281A27A63F3020262F00F0258
:104E30000E48A272A2896FF30902A281A27B63F3DA
:104E4000020262F00F02A273228A6FF30902228229
:104E5000A27C63F3020262F00F02236CA2741D6055
:104E6000074B9847074B9847022070BDF06303003B
:104E70003F3D0200D53C0000994A0000B14A0000C5
:104E800005290000DD4900000A4A10B50A4B0B4C09
:104E90001A645A6480329A64DA64236843B9012040
:104EA000074B9847206018B906484521064B98479C
:104EB00010BD00BF00013002F0630300EC6303008B
:104EC000BD550000113D0200D53C00002DE9F04128
:104ED000134D0C4600210646174698464FF0FF3208
:104EE00028680B46DFF840C0E0477CB1402C3046D4
:104EF0003946DFF838C006D9402243464036E047FD
:104F00004037403CF1E722464346E047002128680D
:104F10000A460B46034CA0470220BDE8F08100BFC3
:104F2000EC63030031540000B9570000654B0000EA
:104F30002DE9F84F554F0E460021804691469A467E
:104F40004FF0FF3238680B46514CA047002E00F05E
:104F50009480504C5FFA88F5AB19B3F5807F236CD1
:104F60008CBFC5F58075354623B94B484FF4EA71BF
:104F70004A4B9847636C23B9474840F2D511474BD9
:104F80009847A36C23B944484FF4EB71434B9847BF
:104F9000E36C23B9404840F2D711404B9847404B4F
:104FA0009847012865D0AB074FEA950B3D4B18BFDA
:104FB0000BF1010B98474FF48072BAF1010F94F88E
:104FC000321022804FF0180E324B94F83E2012D14E
:104FD00032206AF302015862188E6EF3090083F8DA
:104FE000321069001886988F61F3090004219887B0
:104FF00061F3020213E002205862188E6EF309007A
:10500000B3F83CE01886012060F3020160F302026D
:1050100083F83210E90061F3090EA3F83CE083F84D
:105020003E200822238D62F309030122238594F890
:105030002A3062F30203228FC4F82C8084F82A30CD
:10504000002363F309026363228794F83A2063F331
:10505000020284F83A20226C5B4505D059F82310EF
:1050600042F823100133F7E70F4B0A4898470F4BDC
:105070009847A844A944761B68E738683146324609
:1050800033460B4CA0470220BDE8F88FEC630300C9
:10509000B9570000F0630300283D0200D53C000032
:1050A000994A0000B14A000005290000DD490000CE
:1050B00031540000F8B5134C0E460021124D07463E
:1050C0004FF0FF3220680B46A8470025B54210DAA2
:1050D000E819202100030D4B9847022807D0002132
:1050E00020680A460B460A4CA0470020F8BD01354F
:1050F000ECE7002120680A460B46054CA047022039
:10510000F8BD00BFEC630300B9570000B14D0000CB
:105110003154000000F108034FF0FF324360C360D8
:1051200003610023826003607047002303617047BE
:1051300043684B609A688A609A6851609960036816
:1051400008610133036070470A6830B5531C01D110
:10515000036907E000F108035C682568954201D8FF
:105160002346F9E75A684A6091608B60596003688A
:1051700008610133036030BD0369416882688A6059
:10518000826851605968814208BF5A6000220261FA
:10519000186801381860704738B515460446026C27
:1051A0003AB90568002D27D14068164B98476560CD
:1051B00023E0154B65B980689847A268236C1344B7
:1051C0006268A360934217D323682846A36014E063
:1051D000C0689847236CE2685B4221681A448A429F
:1051E000E2603EBF62689B18E360022D04D1A36BAE
:1051F00013B1A36B013BA3630020A36B0133A36333
:1052000038BD00BFE5680000718E0100026C0346E6
:1052100010B55AB1C4681444C4604068844224BFC5
:105220001868D8600846D968014B984710BD00BF80
:10523000718E010070B5174D0446A8472E46A36C29
:10524000002B0CDD636A53B104F12400124B984724
:1052500008B1124B9847A36C013BA364EFE74FF0F2
:10526000FF330F4DA364A847B047636C002B0CDDE0
:10527000236953B104F11000074B984708B1074B5D
:105280009847636C013B6364EFE74FF0FF3363645F
:10529000A84770BD317300000D660000256800004E
:1052A0008173000038B50D46044658B972B6BFF395
:1052B0004F8FBFF36F8F18484FF484721749184B04
:1052C0009847FEE7174B9847206CE36B2268A26073
:1052D0004343D1181B1A134461600021E3604FF06F
:1052E000FF33A1636364A3645DB9236983B104F1EF
:1052F00010000D4B984701280AD100DFBFF36F8FD4
:1053000006E004F11000094DA84704F12400A84765
:10531000074B9847012038BD7B3D02001B3E020031
:105320008D900100317300000D66000015510000E2
:1053300081730000F8B50D461746064658B972B697
:10534000BFF34F8FBFF36F8F184840F243121849D5
:10535000184B9847FEE711B14843013000E008467A
:10536000543013494FF4A972134B9847044630B197
:105370000DB920600FE000F1540303600BE072B63A
:10538000BFF34F8FBFF36F8F084840F27F12084979
:10539000084B9847FEE7E663204625640121074B4A
:1053A000984784F850702046F8BD00BF7B3D02004E
:1053B000553D02008D90010019540100A5520000D6
:1053C00010B50C4658B972B6BFF34F8FBFF36F8F4D
:1053D000134840F24A221349134B9847FEE7814293
:1053E0000BD972B6BFF34F8FBFF36F8F0C4840F2EB
:1053F0004B220C490C4B9847FEE7002102220B4B35
:10540000984708B1846310BD72B6BFF34F8FBFF3E6
:105410006F8F034840F25A220249034B9847FEE738
:105420007B3D0200D63D02008D9001003553000007
:105430002DE9FF478A4699460192044658B972B64B
:10544000BFF34F8FBFF36F8F4E4840F267224E4934
:105450004E4B9847FEE769B9036C5BB172B6BFF378
:105460004F8FBFF36F8F47484FF41A724649474B2F
:105470009847FEE7B9F1020F0ED1E36B012B0BD079
:1054800072B6BFF34F8FBFF36F8F3E4840F2692271
:105490003D493E4B9847FEE73D4B984710B9019E6A
:1054A0000EB15FE000263B4FB847A26BE36BDFF81D
:1054B00004819A4202D3B9F1020F14D1364B20462F
:1054C00051464A469847636A33B104F12400334B8E
:1054D0009847012804D100E010B100DFBFF36F8FBF
:1054E000C04701204AE0019D0DB9C04738E016B918
:1054F00002A82B4B9847C0472A4B9847B847636C84
:10550000294E013308BF0023284D08BF6364A36CF4
:10551000013304BF0023A364C04702A801A9244BA0
:105520009847D0B9B847D4F83880E76B214B9847F3
:10553000B8450ED104F1100001991F4B9847204641
:10554000B047A84708B10126ADE700DFBFF36F8F72
:10555000F9E72046B047A847F5E72046B047A847F7
:1055600000200BE072B6BFF34F8FBFF36F8F05487B
:105570004FF41B720449054B9847FEE704B0BDE8A1
:10558000F08700BF7B3D02002E3E02008D9001009F
:105590003168000031730000995100000D66000071
:1055A0004D670000615F000035520000CD600000D3
:1055B0008D670000817300004964000070B51549D3
:1055C00006464FF4C8725420134B98470446F0B176
:1055D00001230025C3634FF0FF338563103043631D
:1055E00040F80C5C836340F8105C40F8085C40F8BD
:1055F000045C056380F84060084EB04704F1240065
:10560000B04729462A462B462046054DA847204646
:1056100070BD00BF693D0200195401001551000022
:105620003154000073B51646044658B972B6BFF33C
:105630004F8FBFF36F8F2A4840F2244229492A4BEB
:105640009847FEE769B9026C5AB172B6BFF34F8F43
:10565000BFF36F8F224840F225422249224B9847E0
:10566000FEE7022BE06B0DD101280BD072B6BFF321
:105670004F8FBFF36F8F1A4840F2264219491A4BD9
:105680009847FEE7EFF300820192019A02F0800250
:10569000019272B6BFF34F8FBFF36F8F019DA26B64
:1056A000824201D3022B16D11A4620460F4B98474F
:1056B000A36C01330AD1636A5BB104F124000C4B83
:1056C000984730B12EB10120306005E0A36C013362
:1056D000A364012000E0002005B962B602B070BDED
:1056E0007B3D02009B3D02008D900100995100001E
:1056F0000D66000037B50C4658B972B6BFF34F8F30
:10570000BFF36F8F284840F2BF422849284B984783
:10571000FEE7036C5BB172B6BFF34F8FBFF36F8FC1
:10572000214840F2C3422149214B9847FEE70368D4
:105730000BB943684BBBEFF300830193019B03F06C
:105740008003019372B6BFF34F8FBFF36F8F019D3C
:10575000C36B826B9A4216D2836B01338363836C73
:10576000013309D1436A53B12430124B984730B109
:105770002CB10120206003E0836C0133836401209D
:105780007DB962B60DE00020FAE772B6BFF34F8F25
:10579000BFF36F8F04484FF499620449044B984754
:1057A000FEE703B030BD00BF7B3D0200F43D0200C8
:1057B0008D9001000D6600002DE9F04F85B08946FF
:1057C0009A460192044658B972B6BFF34F8FBFF3A1
:1057D0006F8F4F4840F25B524E494F4B9847FEE760
:1057E00069B9036C5BB172B6BFF34F8FBFF36F8FB4
:1057F000474840F25C524749474B9847FEE7474BC2
:10580000984710B9019E0EB172E00026444FB84788
:10581000A36BDFF8388133B320464946414BE56836
:105820009847BAF1000F10D1A36B013BA363236823
:1058300013B93D4B9847606023698BB104F11000A8
:105840003A4B984701280BD107E0636AE5603BB10A
:1058500004F12400354B984710B100DFBFF36F8F80
:10586000C047012050E0019D0DB9C0473EE016B988
:1058700002A82F4B9847C0472E4B9847B847636CF8
:10588000DFF8C8B0013308BF00232B4E08BF6364A4
:10589000A36C2A4D013304BF0023A364C04702A8B0
:1058A00001A9274B9847F0B9B847A76BD847B7B9B4
:1058B00023682BB91A4B98476068224B9847D84702
:1058C00004F124000199204B98472046B047A8478F
:1058D00008B101269AE700DFBFF36F8FF9E7204692
:1058E000B047A847F5E72046B047A84700200BE09F
:1058F00072B6BFF34F8FBFF36F8F054840F25F5210
:105900000449054B9847FEE705B0BDE8F08F00BF9E
:105910007B3D0200B43D02008D9001003168000023
:10592000317300000D520000A56A00000D660000F2
:105930004D670000615F000035520000CD6000003F
:105940008D67000051680000496400008173000009
:1059500073B51646044658B972B6BFF34F8FBFF3FE
:105960006F8F204840F215621F49204B9847FEE791
:1059700069B9036C5BB172B6BFF34F8FBFF36F8F22
:10598000184840F216621849184B9847FEE7EFF3A3
:1059900000830193019B03F08003019372B6BFF370
:1059A0004F8FBFF36F8F019DA06BB8B1104B204696
:1059B0009847A36B013BA363636C01330AD123694E
:1059C0005BB104F110000B4B984730B12EB10120B0
:1059D000306003E0636C01336364012005B962B693
:1059E00002B070BD7B3D0200063E02008D900100BA
:1059F0000D5200000D660000002330B5064CDA00A1
:105A000054F8335025B944F83310A318586030BD0A
:105A10000133082BF2D130BD406403000023074A54
:105A200002EBC3014968814203D1002142F83310DF
:105A300070470133082BF2D1704700BF4064030068
:105A400010B5044658B972B6BFF34F8FBFF36F8FCE
:105A5000074840F2CE620749074B9847FEE7074BDD
:105A600098472046034940F2D662054B984710BD3F
:105A70007B3D0200C93D02008D9001001D5A0000CF
:105A8000D554010070B504460E460D4B1546984797
:105A9000636C013304BF00236364A36C013304BF50
:105AA0000023A364074B9847A36B2BB904F1240090
:105AB00031462A46044B98472046044B984770BD10
:105AC00031730000817300008565000035520000CD
:105AD0002DE9F0410C68002C45D04B6801F1080716
